:100000000C945F020C94A2040C94A3020C94A3021F
:100010000C94A3020C94A3020C94A3020C94A302CC
:100020000C94A3020C94A3020C944D1E0C941F1F5D
:100030000C94DB160C94A3020C94A3020C94A30260
:100040000C94A3020C94A3020C94A3020C94A3029C
:100050000C94A3020C9442170C94A3020C94A302D8
:100060000C94A3020C94A3020C94A3020C94A3027C
:100070000C94A3020C94A3020C94A3020C94A3026C
:100080000C94A3020C94A3020C94A3020C94A3025C
:100090000C94A3020C94A3020C94A3020C94A3024C
:1000A0000C94A3020C94A3020C94A302B406BA0607
:1000B000BE06C106C506C906CD06D106D606DA06B5
:1000C000DE06E206E506E906ED06F106F506FA06A5
:1000D0004C0D4C0D860D860DC90DEB0D5A0F5A0FA8
:1000E000310E5A0FD80ED80E4E0F5A0F5A0F550F09
:1000F000E50EE50EE50EE50EE50EE50EE50EE50E68
:10010000E50EE50EE50EE50EE50EE50EE50EE50E57
:10011000F70E070F0E0F150F1F0FEE0FEE0F01104A
:100120000110F70F011001100110EE0FEE0FFD0F7F
:1001300001100110FD0F841FAB1F9920AB1F9920E8
:10014000F31F162099206C207B200134023400011B
:100150003102310001E1012D022D02E10001E10136
:100160002E022E02E100012D022D00012E022E0092
:10017000012F022F00013002300001E2013502356B
:1001800002E2002B0014001A00080015001700E01E
:100190000004001600070009000A00E1001D001B12
:1001A0000006001900050029001F30E200E300DC12
:1001B0005C2C432030130012000C0018001C002897
:1001C0000033000F000E000D000B00233038003705
:1001D00000360010001100000000000000E600DD05
:1001E0005C2A0035021E021F02200221022202396F
:1001F00000010001000100010001000100010001F7
:1002000000010001000100005C010001000100018B
:1002100000010022302702260225022402230201C7
:100220000001004F00520051005000010001000188
:1002300000010001000100010001000100010001B6
:10024000004C0035001E001F002000210022003A53
:10025000003B003C003D003E003F0001000100016A
:100260000001000100010001000100010001000186
:10027000000100213027002600250024002300452E
:100280000044004300420041004000010001000121
:1002900000010001000100005C01000100010001FB
:1002A000000100010001000100F0000100B900019F
:1002B00000F400F200F100F300B6000100F500FACE
:1002C000000100F900B70001000100010001000178
:1002D000000100450044004300420041004000018D
:1002E0000001004F005200510050000100010001C8
:1002F000007D007C007B0001000100010001000185
:100300000001000403300000001C034C0065007471
:100310000073002000530070006C0069007400201E
:1003200000760032000000160357006F006F007463
:10033000007000610074006F006F00740000000422
:1003400003090409026D00040100A0FA0904000079
:1003500001030101000921110100012240000705EC
:10036000810308000A0904010001030102000921B8
:1003700011010001224D000705820308000A09044B
:1003800002000103000000092111010001223600D2
:100390000705830308000A090403000103000000A5
:1003A0000921110100012239000705840320000101
:1003B0001201100100000008EDFE60300100010292
:1003C000030105010906A101050719E029E7150048
:1003D0002501950875018102050819012905950572
:1003E000750191029501750391010507190029F71F
:1003F0001500250195F875018102C005010980A14C
:100400000185021601002603001A81002A83007567
:100410001095018100C0050C0901A1018503160199
:1004200000269C021A01002A9C0275109501810089
:10043000C005010902A1010901A10005091901294D
:10044000051500250195057501810295017503814A
:10045000010501093009311581257F950275088153
:100460000609381581257F950175088106050C0A56
:1004700038021581257F950175088106C0C00501E8
:100480000906A101050719E029E7150025019508CE
:100490007501810295017508810105081901290579
:1004A00095057501910295017503910105071900E4
:1004B00029FF150026FF00950675088100C011244C
:1004C0001FBECFEFDAE0DEBFCDBF04B603FE24C00F
:1004D00080911F0290912002A0912102B0912202EE
:1004E0008730904BA740B04BB9F410921F02109286
:1004F0002002109221021092220214BE84B7877F3C
:1005000084BF88E10FB6F894809360001092600079
:100510000FBEE0E0F8E3099511E0A0E0B1E0EAE603
:10052000F2E402C005900D92A633B107D9F722E09C
:10053000A6E3B1E001C01D92AF31B207E1F70E941E
:10054000791B0C9433210C940000089508950C94A9
:10055000A60208958091DB01836088608093DB01AF
:10056000A9E1B1E021E030E08D91E82FE295EF7054
:10057000F0E041A18F70B90102C0660F771F8A9524
:10058000E2F7CB01962F9095492341A392A1982B96
:1005900092A371E0AD31B70739F7A3E1B1E021E0F3
:1005A00030E08D91E82FE295EF70F0E041A18F707F
:1005B000B90102C0660F771F8A95E2F7CB01962F2B
:1005C0009095492341A392A1982B92A371E0A93160
:1005D000B70739F7559A209AE6E3F1E0AFE3B1E0C7
:1005E00011921D9281E0EE33F807D1F70C941706B3
:1005F0002F923F925F926F927F928F929F92AF92D3
:10060000BF92CF92DF92EF92FF920F931F93CF93FF
:10061000DF9380910001882319F000E010E002C010
:1006200004E010E099E1E92E91E0F92EA801415C87
:100630005E4F6A01EA01AA24A394B12C7724739433
:100640004E0168801882D7012D917D01E22FE2953D
:10065000EF70F0E081A12F70A50102C0440F551F7B
:100660002A95E2F79A01842B81A382A1542E5094FB
:10067000852182A350EA5A95F1F783E1282E81E083
:10068000382E80E090E0D1015D911D01652F6295CB
:100690006F7070E0DB0190966C9178815F70D5018E
:1006A00002C0AA0FBB1F5A95E2F76A2339F44A2DFC
:1006B000082E01C0440F0A94EAF701C040E0472B1E
:1006C0004883019686309105F1F681A1852181A3A9
:1006D00082A1822B82A32196F4018081681641F0C9
:1006E000709247010E940D17909349018093480131
:1006F000FDE1EF16F1E0FF0609F0A2CF809147017E
:100700008823D1F080914801909149010E941917E6
:10071000069790F080E090E00A5C1E4FF801E80F29
:10072000F91FD601A80FB91F2C91208301968430A0
:100730009105A1F71092470181E0DF91CF911F91C0
:100740000F91FF90EF90DF90CF90BF90AF909F9070
:100750008F907F906F905F903F902F900895CF93F0
:10076000DF9380910001882319F0C4E0D0E002C03B
:10077000C0E0D0E00E941405009791F420E030E042
:10078000CA5CDE4FF901E45BFE4F4081FE01E20FDF
:10079000F31F40832F5F3F4F2430310599F702C08C
:1007A00081E090E0DF91CF910895CF930E94F8020D
:1007B000C82F0E94AF03892BC1F05D9890913E0134
:1007C0009F5F90933E01963098F0809100018823BE
:1007D00019F0E4E0F0E002C0E0E0F0E0EA5CFE4F97
:1007E000108211821282138203C05D9A10923E0120
:1007F0000E9419068C2FCF9108950E94F8028091D3
:100800000001882319F020E030E002C024E030E04D
:1008100080E090E02A5C3E4FF901E80FF91F40812B
:10082000FC01E45BFE4F4083019684309105A1F703
:100830000C94A902E82FF0E0EA5CFE4F8081089555
:100840000895E8EDF0E08081806180838AE18A95F7
:10085000F1F700C08091D900817008950E942104B1
:10086000809300010E942104882319F00E949504BE
:1008700004C00E9404170E949904789408950E946D
:10088000AA020E94FD03FDCF0E942E040E942104B3
:10089000811102C00E943F040895509A0895509813
:1008A000589A0895589A08951F93CF93DF93C82FAD
:1008B0000E944D0418E0D0E0115088F0CE01012EC6
:1008C00002C0959587950A94E2F780FF03C00E94C5
:1008D000520401C0589880E88A95F1F7EDCFDF9176
:1008E000CF911F9108950E944F04489BFECF80E84E
:1008F0008A95F1F708950E944F0498E080E029B1AD
:100900002170880F822B20E82A95F1F725E02A959F
:10091000F1F70000915099F708950E944D045898FE
:1009200080E88A95F1F70C9452040E944D040C94CF
:1009300052040E944F04E89AE9E6F0E080818C7F3F
:10094000808308951F920F920FB60F921124CF92B9
:10095000DF92FF920F931F932F933F934F935F93D9
:100960006F937F938F939F93AF93BF93EF93FF9377
:10097000CF93DF931F92CDB7DEB70E948D04C12CB9
:10098000D12CF12C8601045B1E4FF80180810E945E
:1009900054040E948D04F8018081F80EFFEFCF1AF5
:1009A000DF0A84E0C816D10469F78F2D0E94540431
:1009B0000E948D04E0E8EA95F1F7F0E4FA95F1F78A
:1009C0000E947B0480934B010E948D0410914B0187
:1009D0000E947B0489830E948D040E944F048981B8
:1009E000181721F080914A01816003C080914A016B
:1009F0008E7F80934A010F90DF91CF91FF91EF910D
:100A0000BF91AF919F918F917F916F915F914F9126
:100A10003F912F911F910F91FF90DF90CF900F90FA
:100A20000FBE0F901F901895CF92DF92FF920F93F9
:100A30001F93CF93DF931F92CDB7DEB7F8940E9438
:100A40004D04589885E08A95F1F700000E944F0404
:100A50000E945204E0E8EA95F1F7489934C00E94F8
:100A60007304C12CD12CF12C0E947B048601045B01
:100A70001E4FF80180830E947304F8018081F80EF4
:100A8000FFEFCF1ADF0A84E0C816D10469F70E948D
:100A90007B0489830E9473048981F81214C08091B9
:100AA0004B010E9454040E94730480914B010E94E8
:100AB00054040E9473040E944D040E9452047894CE
:100AC00080E090E003C0789481E090E00F90DF91A7
:100AD000CF911F910F91FF90DF90CF9008950C94CC
:100AE000A502CF93DF93EC010E94F415BE0180E0D4
:100AF00090E0DF91CF910C94F113CF93FB018C3DEB
:100B00002CE59207B9F020F48B3D9C4559F020C0AC
:100B10008D3D2CE5920789F08E3D9C45C9F4C2813C
:100B200083E00DC0C281CC23A1F081E090E00E945F
:100B3000710509C0C28181E002C0C28182E0CC237C
:100B400021F00E944C14C0E004C00E94671401C050
:100B5000C1E08C2FCF910895FC01613229F128F476
:100B60006F3141F0603289F04CC0623261F1633222
:100B7000C9F147C08281882309F446C00E940D173D
:100B800090935101809350013CC082818111F6CF36
:100B900080915001909151010E9419178B34910559
:100BA000B0F185E791E0089582818111E7CF8091CE
:100BB0005001909151010E9419178B34910550F109
:100BC0008BE691E0089582818111D8CF8091500108
:100BD000909151010E9419178B349105F0F08DE529
:100BE00091E0089582818111C9CF80915001909147
:100BF00051010E9419178B34910590F08FE491E018
:100C0000089580E090E008958AE791E0089580E7F4
:100C100091E0089586E691E0089584E591E00895D5
:100C20008AE491E0089581E008950C947D050C9488
:100C30006F050C94A70208950C941B060C941C06D7
:100C400008950E94DC0F0E9420062FEF84E39CE0B1
:100C5000215080409040E1F700C0000087E797E70F
:100C600090930108809300080C9468170F931F93CA
:100C7000CF93DF938C01FC01C081D181CE010E9412
:100C8000D814BE010E94B707EC01B8010E941506F6
:100C9000882309F465C1B801CE010E94180A88238F
:100CA00009F45EC1C531FCE5DF0729F50E948B150B
:100CB000382FF801228180910101909102012223B5
:100CC00071F03A7A21E009F420E0209352012223C6
:100CD00011F065E301C069E20E94691609C0209124
:100CE0005201222311F065E301C069E20E947416EB
:100CF0000E94581535C1C6318CE5D80708F0A3C04D
:100D0000C130ECE5DE0759F4F8018281882309F44B
:100D100027C18091DB0181608093DB0121C1C2305A
:100D2000FCE5DF0708F478C0F8018281882309F424
:100D30007BC00E94E115811102C00E94C7150E946C
:100D4000F91590E09093110280931002FE01E35098
:100D5000FC45E231F10520F4EA5AFF4F0C94E32000
:100D600080911002816003C08091100282608093A4
:100D700010024BC0809110028460F9CF8091100264
:100D800013C0809110028061F2CF809110028062C6
:100D9000EECF809110028064EACF809110028068CB
:100DA000E6CF8091100284608860E1CF80911002CC
:100DB0008E7FDDCF809110028D7FD9CF8091100280
:100DC0008B7FD5CF8091100213C0809110028F7E4F
:100DD000CECF809110028F7DCACF809110028F7B81
:100DE000C6CF809110028F77C2CF809110028B7F87
:100DF000877FBDCF9091100297FB882780F921E073
:100E0000822780FB97F990931002809110020E9434
:100E1000FD150E94DC0FA4C0C115DC4561F081E026
:100E20008093570180935801C801DF91CF911F91A2
:100E30000F910C941306F8018281882309F490C065
:100E40000E9421068DC0C63DECE5DE0759F5F8018C
:100E50008281882361F0109258010E940D179093AF
:100E600056018093550180E20E94FC0C79C080916C
:100E70005801882321F080E20E94030D71C0809107
:100E80005501909156010E9419178436910598F7E3
:100E900080E20E94030D88E20E94A30B88E20E9478
:100EA0009B0C5EC0C73DFCE5DF0708F044C0C43DB5
:100EB0008CE5D80719F5F8018281882351F010924A
:100EC00057010E940D17909354018093530182E0C3
:100ED000CBCF8091570181110FC080915301909128
:100EE00054010E9419178436910530F486E20E945D
:100EF000A30B86E20E949B0C82E0BECFC53DDC4581
:100F000009F08DCFF80182818111A5CF8091580120
:100F10008111B1CF80915501909156010E9419170E
:100F20008436910508F0A7CF87E20E94A30B87E2E1
:100F30000E949B0CA0CFC93DFCE5DF0731F4F8010E
:100F40008281882369F080E009C0CA3DDC4509F050
:100F500066CFF8018281882319F082E00E94131C79
:100F600080E0DF91CF911F910F910895089596E051
:100F7000799FF001112490E3899FE00DF11D112468
:100F8000E60FF11DEE0FFF1FED57FE4F8591949177
:100F90000895880F991F8D5F9C4FFC018591949156
:100FA0000895CF93DF930E94B7070E947809EC0160
:100FB000811520E5920708F040C0811530E49307C1
:100FC00008F01BC1883E910508F5803E910508F0A8
:100FD0008BC1883A910578F4853A910508F09DC057
:100FE0008130910509F480C108F437C1843091053E
:100FF00008F07AC132C18D3B910508F499C0803C5C
:10100000910508F42AC1805C9109E9C0C11580E20C
:10101000D80758F4C11591E0D90708F065C1C03F61
:10102000D10508F41AC1D0655FC1C11520E3D2070C
:1010300008F0D9C0CE019F70D2C0811535E5930765
:1010400008F043C0C11584E5D80708F0EDC0C1150C
:1010500092E5D90708F5C11521E5D20708F0D0C0FF
:101060002C2F237081E090E002C0880F991F2A95F1
:10107000E2F79C689E01E4E036952795EA95E1F752
:101080002370922BCF70C695C69530E2C39FE001C6
:101090001124C82BD92B28C18C2F869586959E01AB
:1010A00023703327C115D34508F0AFC090E2899F64
:1010B000E001112481E090E002C0880F991F2A9579
:1010C000E2F7C82BD92BDC680FC1811529E59207FF
:1010D00080F4811538E5930708F0ABC0C11586E5AB
:1010E000D80708F0BAC0CF71DD27DC2FCC27D0623B
:1010F000FBC0C1159AE5D90708F4A0C0CE019056EF
:101100008115904208F0A9C08D2F8F710E94F409BB
:10111000DD27D0628F71D82BE7C0853A910509F49D
:101120009FC0863A910509F49EC0C3E8D0E4DCC0B4
:10113000883A910509F49AC0893A910509F499C051
:101140008A3A910509F498C08B3A910509F497C041
:101150008C3A910509F496C08B3B910509F495C032
:101160008C3B910509F494C08D3A910509F493C024
:10117000803B910509F492C08E3A910509F491C023
:101180008F3A910509F490C0813B910509F48FC015
:10119000823B910509F48EC0833B910509F48DC013
:1011A000843B910509F48CC0853B910509F48BC003
:1011B000863B910509F48AC0873B910509F489C0F3
:1011C000883B910509F488C0893B910509F487C0E3
:1011D0008A3B910509F086C0CAE2D6E485C00E9428
:1011E000C907EC0181C0CE019927D3FF03C0EC01F0
:1011F000D86C7AC0EC01D06C77C0DF70D06A74C054
:10120000DC2FCC27C16FD06A6FC090E2899FE001CC
:10121000112481E090E002C0880F991F2A95E2F71F
:10122000C82BD92BDA6860C0DC2FCC27C46FD06AFA
:101230005BC0D82FCC27C06FD06A56C08C2F8F7060
:10124000806E90E0906A34E0D695C7953A95E1F7C4
:10125000CF709C013C2BE90147C0C0E0D0E044C006
:10126000C1E8D0E441C0C2E8D0E43EC0C2EED4E45C
:101270003BC0C9EED4E438C0CAEED4E435C0C5EBF7
:10128000D4E432C0C6EBD4E42FC0C3EBD4E42CC00A
:10129000C4EBD4E429C0C7EBD4E426C0CCECD4E43E
:1012A00023C0CDECD4E420C0C3E8D5E41DC0CAE817
:1012B000D5E41AC0C2E9D5E417C0C4E9D5E414C026
:1012C000C1E2D6E411C0C3E2D6E40EC0C4E2D6E463
:1012D0000BC0C5E2D6E408C0C6E2D6E405C0C7E24A
:1012E000D6E402C0C0E0D4E4CE01DF91CF910895EE
:1012F0008238910549F1B0F48133910509F459C060
:1013000048F48932910509F44FC08A32910509F4F5
:1013100055C008958533910509F441C0893391057D
:1013200099F00895833E910531F138F4803E91059E
:1013300091F0823E9105A9F00895863E910501F154
:10134000873E910539F108952091100220FD3BC0A0
:1013500021FD39C008958091100280FF34C089E3D7
:1013600041C08091100282FF32C08091100284FF40
:101370002CC080E037C08091100282FD28C0F5CFDC
:101380008091100283FF25C08091100284FDF1CF6F
:1013900087EE28C08091100283FD1BC0F5CF80919D
:1013A000100285FF18C019C08091100285FF15C07A
:1013B00012C08091100286FF12C013C080911002EB
:1013C00086FF0FC00CC080EE0DC083EE0BC082EE16
:1013D00009C086EE07C085E305C089E203C081E34A
:1013E00001C08AE290E008959091100292FF0DC032
:1013F000282F2871283019F4877F846006C0282F91
:101400002471243011F48B7F886093FF0DC0282F46
:101410002871283119F4877E846106C0282F247131
:10142000243111F48B7E886194FD877E08950895A0
:10143000CF93DF93EC01FB018281811102C081E037
:1014400040C080916601811125C0C631DC45B9F7E5
:101450000E94170A81E0809366010E940D17909305
:101460006501809364011092590110925B01109202
:101470005A0110925D0110925C0110925F0110926E
:101480005E0110926101109260011092630110924E
:10149000620116C080916401909165010E94191744
:1014A0008C32914060F680915901E82FF0E0EE0F08
:1014B000FF1FE65AFE4FD183C0838F5F809359018F
:1014C00080E0DF91CF91089590936C0180936B0140
:1014D0000895E0916B01F0916C01309721F001903B
:1014E000F081E02D099480E00895E0916B01F09186
:1014F0006C01309721F00280F381E02D099408956A
:10150000E0916B01F0916C01309721F00480F5813E
:10151000E02D099408952091690130916A018217A4
:10152000930771F090936A0180936901E0916B01D8
:10153000F0916C01309721F00680F781E02D09943D
:10154000089520916701309168018217930771F027
:101550009093680180936701E0916B01F0916C01B9
:10156000309721F00084F185E02D099408950C94C2
:10157000440481E008950E94041785B7806885BF00
:1015800085B7806885BF0E94AA020C947A17CF9213
:10159000DF92EF92FF920F931F93CF93DF93CDB71C
:1015A000DEB72B970FB6F894DEBF0FBECDBF0E94FB
:1015B000D5030E94B90A811111C08FEF89838A83F4
:1015C0001B820E940D178160782F9D838C83498137
:1015D0005A816B818D810E946F0B56C03EE6E32ECF
:1015E00031E0F32E00E010E0C02E802F0E941A049C
:1015F000F701D1907F01D82631F40F5F1F4F0830DB
:10160000110591F7DACF9091DB0191FF04C08B8730
:101610000E9420048B8520E030E04D2D50E0922F79
:10162000BA01022E02C0759567950A94E2F760FF31
:1016300025C02E83CF82EE24E394F12C02C0EE0C61
:10164000FF1C9A95E2F790E08E219F2121E0892BE3
:1016500009F420E028870E940D178160782F9A876F
:1016600089874E815F8168858A850E946F0BF801AA
:10167000E259FE4F80818E25808306C02F5F3F4F49
:101680002630310561F6B9CF0E940C1910916D0119
:101690000E94690A1817A1F00E94690A80936D01DF
:1016A0002B960FB6F894DEBF0FBECDBFDF91CF9162
:1016B0001F910F91FF90EF90DF90CF900C941E063A
:1016C0002B960FB6F894DEBF0FBECDBFDF91CF9142
:1016D0001F910F91FF90EF90DF90CF900895CF93DF
:1016E000DF93CDB7DEB72B970FB6F894DEBF0FBEF2
:1016F000CDBF4F83588769877A878B87DE01119624
:1017000086E0FD0111928A95E9F785E0FE013796A2
:1017100001900D928A95E1F749815A816B817C8114
:101720008D819E810E94B6122B960FB6F894DEBF73
:101730000FBECDBFDF91CF910895FC0180819181D3
:101740000E9418150895882309F4F4C08238C1F462
:101750000E94690A81FDEEC069E3809101019091C8
:1017600002010E9469160E9458152FEF81EE94E045
:10177000215080409040E1F700C0000069E319C0AB
:101780008338F9F40E94690A80FDD4C063E5809132
:101790000101909102010E9469160E9458152FEFD5
:1017A00081EE94E0215080409040E1F700C00000BD
:1017B00063E580910101909102010E9474160C94DE
:1017C00058158438C1F40E94690A82FDB3C067E4E9
:1017D00080910101909102010E9469160E945815A2
:1017E0002FEF81EE94E0215080409040E1F700C05F
:1017F000000067E4DECF9CEF980F913A40F4682F29
:1018000080910101909102010E946916D8CF90E267
:10181000980F983050F4877091E001C0990F8A9525
:10182000EAF7892F0E948E15CACF9BE5980F933057
:1018300070F4853A29F0863A31F482E890E005C0E8
:1018400081E890E002C083E890E00C948B0A98E570
:10185000980F953108F06EC0883A61F1893A69F1C4
:101860008A3A71F18B3A79F18C3A81F18B3B89F1AB
:101870008C3B91F18D3A99F1803BA1F18E3AA9F11F
:101880008F3AB1F1813BB9F1823BC1F1833BC9F1A0
:10189000843BD1F1853BD9F1863BE1F1873BE9F10E
:1018A000883BF1F1893BF9F18A3B09F03FC08AE2BC
:1018B00092E03EC082EE90E03BC089EE90E038C0FE
:1018C0008AEE90E035C085EB90E032C086EB90E088
:1018D0002FC083EB90E02CC084EB90E029C087EB15
:1018E00090E026C08CEC90E023C08DEC90E020C00E
:1018F00083E891E01DC08AE891E01AC082E991E096
:1019000017C084E991E014C081E292E011C083E243
:1019100092E00EC084E292E00BC085E292E008C043
:1019200086E292E005C087E292E002C080E090E0AB
:101930000C94A10A0895882309F45DC0823879F4D3
:101940000E94690A81FF57C069E38091010190916B
:1019500002010E9469160E94581569E310C083387D
:10196000B1F40E94690A80FF46C063E580910101DD
:10197000909102010E9469160E94581563E58091BA
:101980000101909102010E9474160C94581584383C
:1019900079F40E94690A82FF2EC067E480910101F8
:1019A000909102010E9469160E94581567E4E7CFE2
:1019B0009CEF980F913A10F4682FE1CF90E2980FC6
:1019C000983050F4877091E001C0990F8A95EAF73A
:1019D000892F0E949415D9CF9BE5980F933020F45E
:1019E00080E090E00C948B0A885A853120F480E0E6
:1019F00090E00C94A10A0895882321F00E948E158E
:101A00000C9458150895882321F00E9494150C9485
:101A1000581508958F929F92BF92CF92DF92EF92C6
:101A2000FF920F931F93CF93DF9300D0CDB7DEB714
:101A30004C01472FFC01C580C2949FE0C922D2808F
:101A4000DD2031F079836A830E94AB156A81498178
:101A500049836A830E94511549816A81882389F0EC
:101A6000DD2079F080E2860F883058F082E00E9415
:101A70003A150E945115BB24B394B82649816A8156
:101A800001C0B12CE42EE2948FE0E822F12CF701A2
:101A9000E859FF4F0C94E320842F807F142F1F7090
:101AA000882311F01295107FDD20C1F0112309F475
:101AB000E0C180E2860F883010F0611105C0812FEF
:101AC0006A830E948E1504C0812F6A830E949E152E
:101AD0006A816A830E9458156A81CBC1862F6A8306
:101AE0000E949B0C6A81112309F4E4C180E2860FF5
:101AF000883010F0611104C0812F0E94941503C03A
:101B0000812F0E94A4150E945815D4C1842F807F74
:101B1000142F1F70803211F01295107F662319F078
:101B20006130D9F026C0DD2079F0CC2049F0F1E019
:101B3000CF1206C00E94C415812B0E94BE15BAC1E7
:101B40000E94C415812B4AC1CC2021F021E0C2168D
:101B500009F4B0C10E94C11546C1DD2029F085E01D
:101B60008C1508F4A7C139C194E09C1508F4A2C1F2
:101B70003AC1DD2051F0CC2009F42FC1F401858158
:101B800080FF77C18F70858328C1CC2009F42BC1D9
:101B900081C1242F26952695237030E0211531052B
:101BA00021F02130310561F085C1DD2021F0862F43
:101BB000942F937002C080E090E00E948B0A8AC14B
:101BC000DD2021F0862F942F937002C080E090E0FA
:101BD0000E94A10A7FC1DD20F9F0653F51F0663F08
:101BE00071F0643FA9F480910A0290910B02816028
:101BF0000BC080910A0290910B02826005C0809117
:101C00000A0290910B02846090930B0280930A0267
:101C1000862F0E94141822C0653F51F0663F91F054
:101C2000643FC9F480910A0290910B028E7F05C037
:101C300080910A0290910B028D7F90930B0280930A
:101C40000A0209C020910A0230910B022B7F3093C7
:101C50000B0220930A02862F0E947C180E94011911
:101C600039C1842F837009F04EC0D1102FC1262FA7
:101C7000229526952770220F220F862F8F70C82E4F
:101C8000D12CE12CF12C022E04C0CC0CDD1CEE1C5E
:101C9000FF1C0A94D2F764FF10C06FE070E080E090
:101CA00090E004C0660F771F881F991F2A95D2F70E
:101CB000609570958095909503C060E070E0CB01D1
:101CC000242F26952695237030E02230310569F0C7
:101CD0002330310589F06C297D298E299F292130F7
:101CE000310571F00E940514F1C06C297D298E29FF
:101CF0009F290E941714EAC00E940514C701B6016B
:101D00000E94F313E3C0DD2019F0842F817001C01D
:101D10008695882309F4DAC0262F22952695277008
:101D2000220F220F862F8F70C82ED12CE12CF12C80
:101D3000022E04C0CC0CDD1CEE1CFF1C0A94D2F752
:101D400064FF10C06FE070E080E090E004C0660FB8
:101D5000771F881F991F2A95D2F7609570958095F7
:101D6000909503C060E070E0CB01242F2695269566
:101D7000237030E02230310569F02330310589F0DD
:101D80006C297D298E299F292130310571F00E940F
:101D9000B3149CC06C297D298E299F290E94C514EB
:101DA00095C00E94B314C701B6010E94A1148EC051
:101DB000062F10E0F801E05EF109E531F10508F0C9
:101DC00054C0E858FF4F0C94E320162F1F70842F47
:101DD0008F71DD2031F00E944C14812F0E94FC0C89
:101DE00069C00E946714812F0E94030D63C0DD202B
:101DF00049F0F4E0FC1508F45DC0842F8F710E9457
:101E0000861458C025E02C1508F454C0F6CFDD2008
:101E100039F0842F8F710E944C144CC0DD20C9F31F
:101E2000842F8F710E94671445C0DD2029F0842F14
:101E30008F710E943D143EC00E9438143BC0DD20CB
:101E400051F0142F1F71812F0E944C1463E0812FD9
:101E50000E9431152FC081E00E943A1581E08C1557
:101E600048F582E00E943A1525C0DD2031F0CC20F3
:101E700081F2862F0E94A30B1DC0CC2089F269330A
:101E800049F49FEFE7EEF3E09150E040F040E1F7D6
:101E900000C00000862F0E949B0C0CC04F70C40134
:101EA0000E94AC050E94631315C04F70C4010E94CC
:101EB000B60710C028E0E216F10441F05CF09AE0A9
:101EC000E91AF108E2E0EE16F10420F40E94690A32
:101ED0000E941E06BB20F1F00E942D1580FD1AC045
:101EE000F40112820E9427150E944C14C4010E9422
:101EF000980F0E9427150F900F90DF91CF911F919F
:101F00000F91FF90EF90DF90CF90BF909F908F90B8
:101F10000C9467140F900F90DF91CF911F910F9148
:101F2000FF90EF90DF90CF90BF909F908F9008959B
:101F30000F931F93CF93DF93EC01288139818B811D
:101F40009C81892B31F03F3F11F080E003C02F3F8F
:101F5000E1F781E0811113C0CE010E94360688238B
:101F600071F0688179818A810E9423158C010E9419
:101F7000D7140E94F013B801CE010E940A0DDF9120
:101F8000CF911F910F9108950E94AB150E94BB1530
:101F900080910101909102010E947F160E945815C4
:101FA0000E94A0190E94011980E090E00E948B0A13
:101FB00080E090E00C94A10A0E949B150C94C40F41
:101FC0000E941815E92FE295EF70F0E03297EE309D
:101FD000F105B8F4E357FF4F0C94E320803F59F02C
:101FE00018F4803E70F407C0843F59F404C0803E6A
:101FF00010F0813F31F481E0089593FB882780F948
:10200000089580E00895CF93DF9300D000D01F9211
:10201000CDB7DEB70F900F900F900F900F90DF911C
:10202000CF910895CF93DF9300D000D000D0CDB7EB
:10203000DEB726960FB6F894DEBF0FBECDBFDF9198
:10204000CF9108951F93CF93DF93C091760116E04F
:1020500080917701C81799F0D0E01C9FF0011D9F77
:10206000F00D1124E858FE4F408151816281738147
:10207000848195810E9412102196C770E9CFDF916B
:10208000CF911F9108954091A8015091A9016091AD
:10209000AA017091AB018091AC019091AD010C94BB
:1020A0001210CF938091AD0182958F7009F05FC0BF
:1020B0008091AA01882309F45AC020917601A09149
:1020C00077016091A8017091A9018091AB01909175
:1020D000AC0131E06F3F09F030E0B32FC6E02A17C2
:1020E00009F445C0009721F07F3F21F44B2F03C036
:1020F00041E001C040E030E040FD35C0C29FF0014A
:10210000C39FF00D1124E858FE4F418174132BC07A
:102110004081641328C04281411125C0438154810C
:102120004817590710F441505109481B590B4436C0
:102130005105C8F48091AD018F7080618093AD012D
:1021400086E0829FF001839FF00D1124E358FE4F3B
:1021500080818F708061808388EA91E00E94980F6F
:10216000CF910C9422102F5F3F4F2770B8CFCF91A3
:102170000895CF92DF92EF92FF920F931F93CF9328
:10218000DF93CDB7DEB762970FB6F894DEBF0FBE10
:10219000CDBF8C0185E0F801DE011D9601900D9206
:1021A0008A95E1F7D8014C9111965C91119712969E
:1021B0006C9112971396ED90FC9014977091A80172
:1021C000E091A9012091AB013091AC0121153105BD
:1021D00031F0EF3F31F481E07F3F19F403C081E03B
:1021E00001C080E0B82FB170CB2E80FD6BC1D090C4
:1021F000AA01DD2009F4F5C0F091AD01E216F30665
:1022000038F0C701821B930B8436910548F09DC0BE
:10221000209530952E0D3F1D2436310508F095C0D0
:102220008F2F807F09F052C0E51314C0741312C0C1
:10223000D62E61110FC0FF70F061F093AD010E94C6
:10224000431088EA91E00E94980F8091AD01F80157
:1022500085837CC1EF2831F05F3F31F481E04F3F4F
:1022600019F403C081E001C080E080FD03C081E07B
:10227000862701C080E0F82FF170FF2E80FF1CC080
:10228000809176012091770136E0821709F438C1F8
:1022900090E0389FF001399FF00D1124E858FE4F6F
:1022A0007181571306C07081471303C07281671391
:1022B00003C001968770E9CFD62E662309F446C184
:1022C0008091AD0181608093AD0155C0E51308C0D8
:1022D000741306C0611104C0D8011596FC93AEC0FA
:1022E0004D875E878D859E856A8B0E94E00F6A8987
:1022F000882329F1D62E662311F12091AD01822F7A
:1023000082958F7090E002970CF462C08091A801D2
:102310009091A90198878F831986FB86EA862C877E
:10232000CE01079653C0E51741F14D875E878D8535
:102330009E856A8B0E94E00F6A89811130C0C801B6
:102340000E94980FDD24D39401C18F2F807F59F70D
:102350007E2DF98AE88A89890E94031088EA91E033
:102360000E94980FE8EAF1E086E0DF011D928A956D
:10237000E9F70E944310D12CE9C07413D6CF611144
:10238000D4CFD8011596FC93C8010E94980FE8EAB3
:10239000F1E086E0DF011D928A95E9F7D7C0D62EDD
:1023A000662369F22091AD01822F82958F7090E0B3
:1023B000029774F08091A8019091A9019A83898372
:1023C0001B82FD82EC822E83CE0101960E94980F23
:1023D00086E0F801A8EAB1E001900D928A95E1F754
:1023E0008AC0E216F30628F0C701821B930B9C01FA
:1023F00004C0209530952E0D3F1D2436310508F080
:1024000053C0D62E662309F49ACFE5132CC074135B
:102410002AC08091AD0180FD1DC0982F92959F70BC
:10242000C9F0D80115968C9315979F3039F09F5FAE
:102430009295907F8F70892B15968C93C8010E947E
:10244000980F86E0F801A8EAB1E001900D928A9514
:10245000E1F753C086E0F801A8EAB1E001900D92DF
:102460008A95E1F773C04D875E878D859E850E94B2
:10247000E00F882381F096E0F801A8EAB1E001902E
:102480000D929A95E1F78A8B0E9451100E94431099
:102490008A89D82E5BC08091AD0181608093AD01A7
:1024A000C8010E94980F52C07E2DF98AE88A898956
:1024B0000E940310E8EAF1E086E0DF011D928A95B0
:1024C000E9F71BC0662309F43ACF4D875E878D85F7
:1024D0009E850E94E00FD82E882309F430CF86E035
:1024E000F801A8EAB1E001900D928A95E1F788EA37
:1024F00091E00E949D0B0E9451100E94431026C043
:102500004D875E878D859E850E941815292F2295FF
:102510002F7030E0223031052CF49F7041F0811192
:1025200006C00CC0243031052CF49F7049F4805E45
:10253000883020F0C8010E94980FCF2CDC2C06C0F8
:10254000D80115969C91907F91F7F8CF8D2D6296CA
:102550000FB6F894DEBF0FBECDBFDF91CF911F91B4
:102560000F91FF90EF90DF90CF9008951F93CF933E
:10257000DF93CDB7DEB72C970FB6F894DEBF0FBE52
:10258000CDBF4F83588769877A878B879C87CE0119
:1025900007960E94B9108823C1F02F8138858A855B
:1025A0009B85892B31F03F3F11F080E003C02F3F26
:1025B000E1F781E0811147C04F81588569857A85AF
:1025C0008B859C850E9412103EC086E0FE013796E6
:1025D000DE01119601900D928A95E1F7FF81E88561
:1025E0004A855B854115510531F0EF3F31F481E0BB
:1025F000FF3F19F403C081E001C080E080FD23C0EB
:102600002091770130E0C901019687709927609188
:10261000760170E086179707F1F1F983EA835D830D
:102620004C8396E0929FD001939FB00D1124A8583F
:10263000BE4FFE01319601900D929A95E1F780937D
:1026400077010E94221016E0809176019091770127
:10265000891779F1189FC001112488589E4F0E9454
:10266000B910882331F1E09176011E9FF001112409
:10267000E858FE4F40815181628173818481958148
:102680000E9412108091760190E001968770992740
:1026900080937601D9CF0E94DC0F109277011092BF
:1026A0007601E8EAF1E086E0DF011D928A95E9F71C
:1026B000CACF2C960FB6F894DEBF0FBECDBFDF9108
:1026C000CF911F910895EF92FF920F931F93CF9395
:1026D000DF93FC01009709F46FC0F12CEE24E39422
:1026E000EF0121968491843740F4843008F055C07E
:1026F000813081F0823021F15FC0853709F447C015
:10270000C0F19CE7980F903708F056C08F770E9471
:102710009B0C45C08F010E5F1F4FFE01849190E21C
:10272000980F983050F48770FE2D01C0FF0F8A95E6
:10273000EAF78F2F0E94AE1515C00E94A30B14C09C
:102740008F010E5F1F4FFE01849190E2980F983029
:1027500068F48770FE2D01C0FF0F8A95EAF78F2F6E
:102760000E94B4150E945815E80119C00E949B0CE4
:10277000FBCFCF010296FE01C491CC2361F0EFE9BB
:10278000FFE03197F1F700C00000C150F6CFCF0154
:102790000296FE01F490EC0102C00E94A30B8F2D63
:1027A000882341F0EFE9FFE03197F1F700C0000026
:1027B0008150F6CFFE0194CFDF91CF911F910F9101
:1027C000FF90EF90089508950E94E3136093B20183
:1027D0007093B3018093B4019093B5010C94C40F2E
:1027E00008950C94E4130F931F930091B20110917C
:1027F000B3012091B4013091B501602B712B822B74
:10280000932B1F910F910C94E4130F931F9300913E
:10281000B2011091B3012091B4013091B501602350
:102820007123822393231F910F910C94E4130F9330
:102830001F930091B2011091B3012091B401309126
:10284000B50160277127822793271F910F910C9460
:10285000E41308950C9429140E942A146093AE0185
:102860007093AF018093B0019093B1010C94C40FA9
:1028700060E070E0CB010C942C1441E050E060E08B
:1028800070E004C0440F551F661F771F8A95D2F76A
:10289000CB01BA010C942C1441E050E060E070E0F0
:1028A00004C0440F551F661F771F8A95D2F7809189
:1028B000AE019091AF01A091B001B091B101482B50
:1028C000592B6A2B7B2BCB01BA010C942C1441E0C1
:1028D00050E060E070E004C0440F551F661F771F92
:1028E0008A95D2F740955095609570958091AE018C
:1028F0009091AF01A091B001B091B101482359234B
:102900006A237B23CB01BA010C942C1441E050E0E4
:1029100060E070E004C0440F551F661F771F8A9562
:10292000D2F78091AE019091AF01A091B001B0912A
:10293000B101482759276A277B27CB01BA010C949C
:102940002C140F931F930091AE011091AF012091B1
:10295000B0013091B101602B712B822B932B1F9111
:102960000F910C942C140F931F930091AE011091B2
:10297000AF012091B0013091B10160237123822316
:1029800093231F910F910C942C140F931F9300917C
:10299000AE011091AF012091B0013091B1016027DB
:1029A0007127822793271F910F910C942C1408955F
:1029B000CF92DF92EF92FF920F931F93CF93DF930B
:1029C000EC01C090B201D090B301E090B401F0905E
:1029D000B5018091AE019091AF01A091B001B0918D
:1029E000B101C82AD92AEA2AFB2A0FE110E0B7016F
:1029F000A601002E04C076956795579547950A94D1
:102A0000D2F740FD05C00150110988F780E007C0EA
:102A1000BE01802F0E94D1070197A9F3802FDF917B
:102A2000CF911F910F91FF90EF90DF90CF9008957D
:102A3000CF93DF93EC010E94D814BE010E94D1070E
:102A4000DF91CF910895CB010E94181508958091D0
:102A5000B60185958595859508958091B601877015
:102A6000089598E0899F90011124622B6093B6012C
:102A70000C944C144091B601809584238093B60148
:102A8000982F977069F450E0282F332727FD309551
:102A90004217530729F08595859585950C94671401
:102AA00008959091B601977081E009F480E008954F
:102AB000E0910101F09102018091DA018083E091BF
:102AC0000101F091020180819091D901892B8083CD
:102AD000E0910101F091020180819091D801892B50
:102AE00080839091B701992381F0E0910101F091E9
:102AF00002018081892B80838091010190910201E4
:102B00000E94021681111092B701809101019091EB
:102B100002010C94750A8091DA0108959091DA010E
:102B2000982B9093DA01089580959091DA0198237B
:102B30009093DA0108951092DA0108959091D901E5
:102B4000982B9093D901089580959091D90198235D
:102B50009093D90108951092D90108959091D801C8
:102B6000982B9093D801089580959091D80198233F
:102B70009093D80108951092D80108958093B701D9
:102B800008951092B70108958091B70108956DEEF0
:102B90007EEF80E090E00E941D2160E082E090E006
:102BA0000E940B2160E083E090E00E940B2160E036
:102BB00084E090E00E940B2160E085E090E00C94BE
:102BC0000B2180E090E00E94052121E08D3E9E4F88
:102BD00009F020E0822F089582E090E00C94FD201F
:102BE00083E090E00C94FD20682F83E090E00C944B
:102BF0000B2184E090E00C94FD20682F84E090E0AD
:102C00000C940B2120E030E040E0FC01E20FF31FC8
:102C1000518151114F5F2F5F3F4F2F313105A9F780
:102C2000842F089520E030E04FEFFC01E20FF31F06
:102C30005281561799F04F3F19F4511101C0422F9C
:102C40002F5F3F4F2E31310581F74F3F39F0FC01A7
:102C5000E40FF11D47FDFA9562830895089520E081
:102C600030E0FC01E20FF31F4281461301C01282E3
:102C70002F5F3F4F2E313105A1F70895262F26955E
:102C8000269526952F3170F4FC01E20FF11D677037
:102C900021E030E0062E01C0220F0A94EAF781817C
:102CA000822B81830895262F2695269526952F31F0
:102CB00078F4FC01E20FF11D677021E030E0062E90
:102CC00001C0220F0A94EAF72095818128232183ED
:102CD000089520911201222329F02091100227FD4E
:102CE0000C943E160C94121620911201222329F006
:102CF0002091100227FD0C9453160C942F1620E0FF
:102D000030E0FC01E20FF31F11822F5F3F4F2F31A4
:102D10003105B9F7089508950C948B168091160229
:102D2000843031F11092DC0120E488E190E00FB6AC
:102D3000F894A895809360000FBE2093600080E017
:102D40000E941E060E948C1683B7817F846083BF19
:102D500083B7816083BF7894889583B78E7F83BF64
:102D600088E10FB6F89480936000109260000FBE67
:102D7000089508950895CF930E94B9160E94D5032F
:102D80000E94BA16C0E08C2F0E941A04811105C05F
:102D9000CF5FC830C1F780E001C081E0CF910895D6
:102DA00008950C94D0160E94DC0F0E94690A0E94BC
:102DB0001E060C94D1161F920F920FB60F9211247B
:102DC0008F939F93AF93BF938091DC01811113C0C8
:102DD00080910C0290910D02A0910E02B0910F0211
:102DE0004196A11DB11D80930C0290930D02A093FA
:102DF0000E02B0930F02BF91AF919F918F910F90F0
:102E00000FBE0F901F90189582E084BD93E095BD92
:102E10009AEF97BD80936E0008952FB7F894809134
:102E20000C0290910D02A0910E02B0910F022FBFE3
:102E30000895CF92DF92EF92FF920F931F932FB7D7
:102E4000F89440910C0250910D0260910E02709125
:102E50000F022FBF6A017B01EE24FF248C0120E0CA
:102E600030E0C016D106E206F30610F441505109D5
:102E7000481B590BCA011F910F91FF90EF90DF90F3
:102E8000CF90089578941F920F920FB60F9211244D
:102E90008F939F93AF93BF9380910C0290910D02FB
:102EA000A0910E02B0910F020196A11DB11D809359
:102EB0000C0290930D02A0930E02B0930F02BF91EB
:102EC000AF919F918F910F900FBE0F901F9018950B
:102ED00087E797E790930108809300082AE088E14C
:102EE00090E00FB6F894A895809360000FBE2093F1
:102EF0006000FFCF0E94E115811102C00E94C7153A
:102F00000E94EC158093DB010E94F91590E09093EC
:102F10001102809310020E94F015682F70E080E08B
:102F200090E00C94F1138091E00180FF0BC0609160
:102F3000060185E0689FB001112475956795759528
:102F400067952AC081FF09C06091060185E0689FEE
:102F5000B0011124759567951FC082FF07C060916D
:102F6000060185E0689FB001112416C04091E1017F
:102F70004423C9F060910501461788F720910601A6
:102F800085E0289F90011124429FC001439F900D2E
:102F9000112470E00E94CF206038710540F4611563
:102FA000710539F002C065E070E0862F08958FE763
:102FB000089581E008958091E00180FF08C060914C
:102FC000040170E0759567957595679521C081FF3F
:102FD00006C06091040170E07595679519C082FF85
:102FE00004C06091040170E010C08091E101882369
:102FF000C1F0609103018617A0F790910401989F9A
:10300000C001112470E00E94CF206038710528F4BF
:103010006115710521F0862F08958FE7089581E0ED
:10302000089561E070E0F4CF803F21F40E9493178F
:10303000819504C0813F29F40E9493178093E40195
:103040000895823F21F40E949317819504C0833F25
:1030500029F40E9493178093E3010895893F19F49E
:103060000E94DB1705C08A3F31F40E94DB1781956F
:103070008093E50108958B3F21F40E94DB17819531
:1030800004C08C3F29F40E94DB178093E601089569
:10309000843F21F48091E201816017C0853F21F4D3
:1030A0008091E201826011C0863F21F48091E201AB
:1030B00084600BC0873F21F48091E201886005C0E5
:1030C000883F31F48091E20180618093E2010895AC
:1030D0008D3F21F48091E00181600BC08E3F21F48F
:1030E0008091E001826005C08F3F29F48091E0016A
:1030F00084608093E0010895803F39F48091E40179
:1031000087FF6CC01092E40169C0813F29F480916F
:10311000E4011816BCF362C09091E301823F29F4E8
:1031200097FF5CC01092E30159C0833F19F4191650
:10313000CCF354C0893F41F48091E50118160CF09E
:103140004DC01092E5014AC08A3F29F48091E50103
:1031500087FF44C0F6CF8B3F39F48091E60187FFAB
:103160003DC01092E6013AC08C3F29F48091E601FF
:103170001816BCF333C0843F21F48091E2018E7FA6
:1031800017C0853F21F48091E2018D7F11C0863FF9
:1031900021F48091E2018B7F0BC0873F21F4809165
:1031A000E201877F05C0883F31F48091E2018F7E84
:1031B0008093E20113C08D3F21F48091E0018E7F66
:1031C0000BC08E3F21F48091E0018D7F05C08F3FC1
:1031D00029F48091E0018B7F8093E0018091E301ED
:1031E00081110EC08091E40181110AC08091E50136
:1031F000811106C08091E601811102C01092E101A7
:10320000089582EE91E00E94800A0E940D1790932B
:10321000DE018093DD0108951F93CF93DF938091AA
:10322000DD019091DE010E9419174091E1014423D4
:1032300021F02091070130E006C02091DF015AE023
:10324000259F900111248217930708F475C080917F
:10325000E3011091E401D091E501C091E6018111F3
:1032600007C0111105C0D11103C0CC2309F464C0FB
:103270004F3F19F04F5F4093E101181624F40E946C
:1032800093178093E3018091E30187FF05C00E94BB
:10329000931781958093E301111624F40E949317EC
:1032A0008093E4018091E40187FF05C00E94931799
:1032B00081958093E4012091E3012223D1F0409194
:1032C000E4014423B1F055EB2503900111243111A1
:1032D00002C081E001C0832F8093E30125EB42030C
:1032E000C0011124911102C081E001C0892F809397
:1032F000E4011D1624F40E94DB178093E501809100
:10330000E50187FF05C00E94DB1781958093E501E9
:103310001C1624F40E94DB178093E6018091E601DD
:1033200087FF05C00E94DB1781958093E601DF913E
:10333000CF911F910C940119DF91CF911F910895A6
:10334000E2EEF1E085E0DF011D928A95E9F7109247
:10335000E1011092E00108958091070208950F9312
:103360001F93CF93DF9300D01F92CDB7DEB78C01B0
:103370000E94231C823011F0843019F583E0898388
:103380001B830A838093E9008FEF9091E8008150BE
:1033900095FD06C095ED9A95F1F700008111F5CFE6
:1033A0008091E80085FF0DC040E050E063E070E0F0
:1033B000CE0101960E94401C8091E8008E77809398
:1033C000E8000F900F900F90DF91CF911F910F9118
:1033D0000895CF93DF9300D01F92CDB7DEB7209131
:1033E0001602243031F522E02983805891099B830D
:1033F0008A8383E08093E9008FEF9091E800815009
:1034000095FD06C095ED9A95F1F700008111F5CF75
:103410008091E80085FF0DC040E050E063E070E07F
:10342000CE0101960E94401C8091E8008E77809327
:10343000E8000F900F900F90DF91CF910895CF93F8
:10344000DF93EC010E94231C823011F08430F9F4E8
:1034500082E08093E9008FEF9091E800815095FD24
:1034600006C095ED9A95F1F700008111F5CF809196
:10347000E80085FF0CC040E050E065E070E0CE0160
:103480000E94401C8091E8008E778093E800DF91D5
:10349000CF910895CF93DF93EC010E94231C8230DB
:1034A00019F0843009F047C0809112018823E1F0BF
:1034B0008091100287FF18C084E08093E9008FEFAD
:1034C0009091E800815095FD06C095E19A95F1F73D
:1034D00000008111F5CF8091E80085FF2CC040E00D
:1034E00050E060E270E017C081E08093E9008FEF68
:1034F0009091E800815095FD06C095ED9A95F1F701
:1035000000008111F5CF8091E80085FF14C040E0F4
:1035100050E068E070E0CE010E94401C8091E8001D
:103520008E778093E80080E2FE01A7EEB1E0019083
:103530000D928A95E1F7DF91CF9108958091150260
:10354000811109C00E94D21D0E942F1E8091E200AD
:1035500084608093E2000895109215020895089502
:1035600008950C94D31642E061EC81E00E944C1D5A
:1035700042E061EC82E00E944C1D42E061EC83E09D
:103580000E944C1D42E261EC84E00C944C1D809141
:103590001802833009F455C030F4813071F0823064
:1035A00009F48EC008958A3009F47AC08B3009F48A
:1035B00060C0893009F09CC020C080911702813A18
:1035C00009F096C08091E800877F8093E8008091A1
:1035D0001B0290911C02892B21F060E080E090E0BA
:1035E00003C060E287EE91E070E00E94891C809148
:1035F000E8008B778093E80008958091170281326C
:1036000009F076C080911B0290911C02009719F07E
:10361000039709F06DC08091E800877F8093E800F0
:103620008091E80082FD05C0809116028111F8CFDB
:103630005FC08091F100809307028091E8008B7752
:1036400053C080911702813A09F052C080911B0249
:1036500090911C02892B09F04BC08091E800877F74
:103660008093E8008091E80080FFFCCF80911201F8
:1036700036C0809117028132D9F580911B0290915A
:103680001C02892BA9F58091E800877F8093E800D0
:103690000E94811D80911902809312010C94DC0F0D
:1036A00080911702813221F58091E800877F809315
:1036B000E8000E94811D80911A02809308020895FB
:1036C00080911702813AA1F48091E800877F80936E
:1036D000E8008091E80080FFFCCF80910802809391
:1036E000F1008091E8008E778093E8000C94811DB2
:1036F000089584B7877F84BF88E10FB6F8948093DC
:103700006000109260000FBE80E88093610010920C
:1037100061000E94B70A0E94D21D0E942F1E809154
:10372000E20084608093E20078940E94B2200E94BC
:10373000BB0A88E091E00E94640A809116028530FD
:1037400069F40E948E16809114028823B1F30E94BE
:10375000BB16882391F30E942A1CEFCF0E94C70A50
:10376000ECCF0C94B31B292F332723303105A9F05C
:103770006CF42130310509F448C02230310509F0DC
:1037800049C08DE690E023E433E048C021323105A2
:10379000F9F02232310549F13DC099278130910578
:1037A00071F02CF4892BB1F5EFE3F3E00DC082301A
:1037B000910541F0039771F5E3E0F3E005C0E7E21E
:1037C000F3E002C0E9E0F3E0849190E09F0126C0BD
:1037D00064307105F8F4FB01EE0FFF1FE35DFE4F4F
:1037E0002081318189E090E019C06430710590F446
:1037F000FB01EE0FFF1FEB5DFE4F20813181FB01CE
:10380000EF5DFE4F808190E009C082E190E020EB07
:1038100033E004C080E090E020E030E0FA01318342
:10382000208308950895CF93C82F0E94121CC0933F
:103830000902CF91089580911602843011F482E03C
:10384000089581E0089580910902811102C00C94CD
:103850001B1C089580E189BD82E189BD09B400FE89
:10386000FDCF8091D8008F7D8093D8008091E000BB
:1038700082608093E0008091E00081FDFCCF08959C
:10388000CF92DF92EF92FF920F931F93CF93DF932C
:103890007C018B01EA010E94A21D811131C0209799
:1038A00031F088819981081B190BE80EF91EC12C93
:1038B000D12C0115110519F18091E80085FD14C086
:1038C0008091E8008E778093E800209741F088810E
:1038D00099818C0D9D1D9983888385E011C00E947C
:1038E000A21D882331F30CC0F70181917F018093E1
:1038F000F10001501109FFEFCF1ADF0ADACF80E0A3
:10390000DF91CF911F910F91FF90EF90DF90CF90BB
:10391000089520911D0230911E022617370748F0A6
:103920006115710539F42091E8002E772093E800A5
:1039300001C0B901FC0120E061157105B9F1809168
:103940001602882309F440C0853009F43FC08091F5
:10395000E80083FD3DC08091E80082FF06C08091B1
:10396000E80082FF26C080E008958091E80080FF93
:10397000E3CF2091F3008091F20090E0922B61154B
:10398000710551F08830910538F421912093F100B0
:10399000615071090196F3CF21E0089709F020E00A
:1039A0008091E8008E778093E800C6CF2111C7CFC1
:1039B000D6CF80911602882339F0853039F0809176
:1039C000E80083FFCCCF04C082E0089583E008952F
:1039D00081E0089520911D0230911E0226173707BD
:1039E00048F06115710539F42091E8002E77209395
:1039F000E80001C0B901FC0120E061157105C1F1C9
:103A000080911602882309F441C0853009F440C032
:103A10008091E80083FD3EC08091E80082FF06C0EF
:103A20008091E80082FF27C080E008958091E8003F
:103A300080FFE3CF2091F3008091F20090E0922B81
:103A40006115710559F08830910540F42491209357
:103A5000F1003196615071090196F2CF21E008978B
:103A600009F020E08091E8008E778093E800C5CFD0
:103A70002111C6CFD5CF80911602882339F0853029
:103A800039F08091E80083FFCBCF04C082E0089535
:103A900083E0089581E00895982F973058F590932A
:103AA000E900981739F07091EC002091ED005091E9
:103AB000F00003C0242F762F50E021FF19C0309171
:103AC000EB003E7F3093EB003091ED003D7F309373
:103AD000ED003091EB0031603093EB007093EC001F
:103AE0002093ED005093F0002091EE0027FF07C0D7
:103AF0009F5FD3CF8F708093E90081E0089580E0CD
:103B000008958091170287FD05C08091E80080FF2D
:103B10000EC012C08091E80082FD05C0809116029F
:103B20008111F8CF08958091E8008B7708C08091CB
:103B300016028111EACF08958091E8008E77809374
:103B4000E80008958091E4009091E50045E6209119
:103B5000EC0020FF21C02091E80020FD21C0209131
:103B60001602222389F0253089F02091EB0025FDF3
:103B70000FC02091E4003091E5002817390739F390
:103B8000415041F0C901E3CF82E0089583E00895F8
:103B900081E0089584E008952091E80022FFDFCFBE
:103BA00080E008950E94401E0E94481EE0EEF0E072
:103BB000808181608083E8EDF0E080818F77808371
:103BC00019BCA7EDB0E08C918E7F8C9380818F7EA5
:103BD00080831092150208950F931F93CF93DF9364
:103BE0000E94401E0E94481EC8EDD0E088818F7759
:103BF000888388818068888388818F7D888319BCC9
:103C000010921602109212021092140210921302D5
:103C100000EE10E0F80180818B7F808388818160D5
:103C2000888342E060E080E00E944C1DE1EEF0E01D
:103C300080818E7F8083E2EEF0E0808181608083EE
:103C4000808188608083F80180818E7F8083888175
:103C500080618883DF91CF911F910F910895E8EDE6
:103C6000F0E080818F7E8083E7EDF0E080818160ED
:103C7000808384E082BF81E0809315020C94EC1D68
:103C8000E8EDF0E080818E7F80831092E20008955D
:103C90001092DA001092E10008951F920F920FB671
:103CA0000F9211242F933F934F935F936F937F93C2
:103CB0008F939F93AF93BF93EF93FF938091E10016
:103CC00082FF0BC08091E20082FF07C08091E1007B
:103CD0008B7F8093E1000E94B1208091DA0080FF09
:103CE0001FC08091D80080FF1BC08091DA008E7FBA
:103CF0008093DA008091D90080FF0DC080E189BDFA
:103D000082E189BD09B400FEFDCF81E080931602F7
:103D10000E949E1A05C019BC109216020E94AC1A8D
:103D20008091E10080FF19C08091E20080FF15C002
:103D30008091E2008E7F8093E2008091E2008061BA
:103D40008093E2008091D80080628093D80019BCF3
:103D500085E0809316020E94B01A8091E10084FFF2
:103D600030C08091E20084FF2CC080E189BD82E1F7
:103D700089BD09B400FEFDCF8091D8008F7D80936E
:103D8000D8008091E1008F7E8093E1008091E20075
:103D90008F7E8093E2008091E20081608093E20058
:103DA00080911202882311F084E007C08091E30023
:103DB00087FF02C083E001C081E0809316020E9469
:103DC000B11A8091E10083FF29C08091E20083FF56
:103DD00025C08091E100877F8093E10082E080939D
:103DE0001602109212028091E1008E7F8093E10012
:103DF0008091E2008E7F8093E2008091E2008061FA
:103E00008093E20042E060E080E00E944C1D8091DF
:103E1000F00088608093F0000E94AF1AFF91EF914C
:103E2000BF91AF919F918F917F916F915F914F91D2
:103E30003F912F910F900FBE0F901F9018951F92DA
:103E40000F920FB60F9211242F933F934F935F93CE
:103E50006F937F938F939F93AF93BF93CF93EF9382
:103E6000FF93C091E900CF708091EC001092E900BF
:103E70008091F000877F8093F00078940E945B1F10
:103E80001092E9008091F00088608093F000C09368
:103E9000E900FF91EF91CF91BF91AF919F918F91E9
:103EA0007F916F915F914F913F912F910F900FBE36
:103EB0000F901F9018951F93CF93DF93CDB7DEB768
:103EC000AA970FB6F894DEBF0FBECDBFE7E1F2E0D0
:103ED0008091F100819322E0EF31F207C9F70E944F
:103EE000C71A8091E80083FF24C120911702309106
:103EF0001802832F90E08A30910508F01AC1FC0166
:103F0000E556FF4F0C94E320203821F0223809F0C9
:103F100010C108C08091130290911402992389F076
:103F200082600FC080911B028F70873008F001C142
:103F30008093E9008091EB0085FB882780F910923F
:103F4000E9009091E800977F9093E8008093F1005A
:103F50001092F100CCC0822F8D7F09F0EAC022239D
:103F600019F0223061F0E5C080911902813009F02A
:103F7000E0C0333009F080E0809314022AC08091C1
:103F80001902811126C020911B022F708FEF820F22
:103F9000863008F0CEC02093E9008091EB0080FFCE
:103FA00018C08091EB00333011F4806210C0806142
:103FB0008093EB0081E090E001C0880F2A95EAF73A
:103FC0008093EA001092EA008091EB008860809371
:103FD000EB001092E9008091E800877F8093E80071
:103FE0000E94811DA6C02111A4C0109119021F7743
:103FF0008091E3008078812B8093E3008091E8003A
:10400000877F8093E8000E94811D8091E80080FFF7
:10401000FCCF8091E30080688093E300112311F0CE
:1040200083E001C082E08093160283C020582230D2
:1040300008F07FC08091190290911A028C3D23E014
:10404000920779F583E08A838AE289834FB7F894EF
:10405000DE01139620E03EE051E2E32FF0E05093C2
:104060005700E49120FF03C0E295EF703F5FEF70CF
:104070008E2F90E0EA3010F0C79601C0C0968D9365
:104080009D932F5F243149F74FBF8091E800877FD0
:104090008093E8006AE270E0CE0101960E94891CDC
:1040A00015C060911B0270911C02AE014F5F5F4F03
:1040B0000E94B11B0097E9F12091E800277F20932F
:1040C000E800BC0189819A810E94EA1C8091E80085
:1040D0008B778093E8002DC0203859F58091E80057
:1040E000877F8093E800809112028093F100809195
:1040F000E8008E7773CF21111CC090911902923085
:10410000C0F48091E800877F8093E80090931202CA
:104110000E94811D80911202811104C08091E300F0
:1041200087FF02C084E001C081E0809316020E94F4
:10413000B31A8091E80083FF0AC08091E800877F6E
:104140008093E8008091EB0080628093EB00AA9658
:104150000FB6F894DEBF0FBECDBFDF91CF911F9198
:1041600008950895CF93809116028823B1F080912D
:10417000E9008F709091EC0090FF02C090E801C0C0
:1041800090E0C92FC82B1092E9008091E80083FDD0
:104190000E945B1FCF70C093E900CF91089597FBF9
:1041A000072E16F4009407D077FD09D00E94E9206D
:1041B00007FC05D03EF4909581959F4F089570952A
:1041C00061957F4F0895EE0FFF1F0590F491E02D4C
:1041D0000994AA1BBB1B51E107C0AA1FBB1FA6174E
:1041E000B70710F0A61BB70B881F991F5A95A9F7A0
:1041F00080959095BC01CD010895F999FECF92BDAF
:1042000081BDF89A992780B50895A8E1B0E042E011
:1042100050E00C942521262FF999FECF92BD81BD47
:10422000F89A019700B4021639F01FBA20BD0FB6F4
:10423000F894FA9AF99A0FBE08950196272F0E94D2
:104240000C210C940B21DC01CB01FC01F999FECF70
:1042500006C0F2BDE1BDF89A319600B40D9241500E
:0A4260005040B8F70895F894FFCF1E
:10426A0001B8012808140414AC194A1A1F1AE919CA
:10427A00AF1901F6F73133323697C63435000000EC
:10428A0000404D36397E043104FB03C20355036EE8
:06429A00038703A00300EE
:00000001FF
